:020000040000FA
:02000000FD2BD6
:1000860083168501831285018316870183128701F2
:100096008312A601A7012708803ADF0080305F029D
:1000A600031D572809302602031C5A285B285D28A1
:1000B600EC28EC280830831287006830A500E4306D
:1000C600A400A40B6428A50B64280000103083123A
:1000D60087006830A500E430A400A40B7028A50BA7
:1000E600702800002030831287006830A500E430B5
:1000F600A400A40B7C28A50B7C28000002308312E8
:1001060087006830A500E430A400A40B8828A50B5E
:10011600882800000430831287006830A500E43088
:10012600A400A40B9428A50B942800000130831288
:1001360087006830A500E430A400A40BA028A50B16
:10014600A028000083128701103085006830A500C2
:10015600E430A400A40BAD28A50BAD2800000230A6
:10016600831285006830A500E430A400A40BB928EA
:10017600A50BB92800000430831285006830A5005D
:10018600E430A400A40BC528A50BC5280000203028
:10019600831285006830A500E430A400A40BD128A2
:1001A600A50BD1280000831285010130A60703188C
:1001B600A70A0030A7072708803ADF0080305F02D1
:1001C600031DE72809302602031CEA28EB285D28D0
:1001D600EC288312A801A9012908803ADF008030A3
:1001E6005F02031DF82809302802031CFB28FC289F
:1001F600FE28F92AF92A0430831287006830A50000
:10020600E430A400A40B0529A50B052900008312E0
:100216008701043085006830A500E430A400A40BF3
:100226001229A50B122900008312850110308700C0
:100236006830A500E430A400A40B1F29A50B1F29D4
:1002460000000130831287006830A500E430A40066
:10025600A40B2B29A50B2B29000002308312870043
:100266006830A500E430A400A40B3729A50B372974
:1002760000000830831287006830A500E430A4002F
:10028600A40B4329A50B43290000831287012030C4
:1002960085006830A500E430A400A40B5029A50B06
:1002A600502900000230831285006830A500E43032
:1002B600A400A40B5C29A50B5C2900008312850110
:1002C600203087006830A500E430A400A40B69291B
:1002D600A50B69290000831287011030850068305C
:1002E600A500E430A400A40B7629A50B762900000E
:1002F60083128501103087006830A500E430A40021
:10030600A40B8329A50B83290000203083128700C4
:100316006830A500E430A400A40B8F29A50B8F2913
:10032600000083128701043085006830A500E430A0
:10033600A400A40B9C29A50B9C290000831285010F
:10034600023087006830A500E430A400A40BA92978
:10035600A50BA9290000831287011030850068309B
:10036600A500E430A400A40BB629A50BB62900000D
:100376002030831285006830A500E430A400A40B69
:10038600C229A50BC229000083128501013087000E
:100396006830A500E430A400A40BCF29A50BCF2913
:1003A60000000830831287006830A500E430A400FE
:1003B600A40BDB29A50BDB29000004308312870080
:1003C6006830A500E430A400A40BE729A50BE729B3
:1003D600000083128701023085006830A500E430F2
:1003E600A400A40BF429A50BF429000020308312E5
:1003F60085006830A500E430A400A40B002AA50BF4
:10040600002A000083128501083087006830A500A5
:10041600E430A400A40B0D2AA50B0D2A000004301D
:10042600831287006830A500E430A400A40B192AC3
:10043600A50B192A00002030831287006830A5001A
:10044600E430A400A40B252AA50B252A00000130C0
:10045600831287006830A500E430A400A40B312A7B
:10046600A50B312A0000831287010430850068300D
:10047600A500E430A400A40B3E2AA50B3E2A0000EA
:100486001030831285006830A500E430A400A40B68
:100496004A2AA50B4A2A00008312850102308700EA
:1004A6006830A500E430A400A40B572AA50B572AF0
:1004B60000001030831287006830A500E430A400E5
:1004C600A40B632AA50B632A000020308312870041
:1004D6006830A500E430A400A40B6F2AA50B6F2A90
:1004E600000083128701043085006830A500E430DF
:1004F600A400A40B7C2AA50B7C2A000010308312D2
:1005060085006830A500E430A400A40B882AA50B5A
:10051600882A00002030831285006830A500E43068
:10052600A400A40B942AA50B942A0000831285012B
:10053600103087006830A500E430A400A40BA12A7F
:10054600A50BA12A00000130831287006830A500A0
:10055600E430A400A40BAD2AA50BAD2A000083123B
:100566008701023085006830A500E430A400A40BA2
:10057600BA2AA50BBA2A0000831285010830870023
:100586006830A500E430A400A40BC72AA50BC72A2F
:1005960000000430831287006830A500E430A40010
:1005A600A40BD32AA50BD32A00000230831287009E
:1005B6006830A500E430A400A40BDF2AA50BDF2ACF
:1005C600000001308312A8070318A90A0030A90702
:1005D6002908803ADF0080305F02031DF42A0930C3
:1005E6002802031CF72AF82AFE28F92A8312AA01F0
:1005F600AB012B08803ADF0080305F02031D052B1C
:1006060009302A02031C082B092B0B2B4B284B28DD
:100616000830831287006830A500E430A400A40BDC
:10062600122BA50B122B00001030831287006830A6
:10063600A500E430A400A40B1E2BA50B1E2B000066
:100646002030831287006830A500E430A400A40B94
:100656002A2BA50B2A2B0000023083128700683054
:10066600A500E430A400A40B362BA50B362B000006
:100676000430831287006830A500E430A400A40B80
:10068600422BA50B422B00000130831287006830F5
:10069600A500E430A400A40B4E2BA50B4E2B0000A6
:1006A60083128701103085006830A500E430A4006D
:1006B600A40B5B2BA50B5B2B00000230831285007D
:1006C6006830A500E430A400A40B672BA50B672BAC
:1006D60000000430831285006830A500E430A400D1
:1006E600A40B732BA50B732B0000203083128500FF
:1006F6006830A500E430A400A40B7F2BA50B7F2B4C
:1007060000000430831285006830A500E430A400A0
:10071600A40B8B2BA50B8B2B0000023083128500BC
:100726006830A500E430A400A40B972BA50B972BEB
:1007360000001030831285006830A500E430A40064
:10074600A40BA32BA50BA32B00008312850101305C
:1007560087006830A500E430A400A40BB02BA50BDD
:10076600B02B00000430831287006830A500E43007
:10077600A400A40BBC2BA50BBC2B000002308312DB
:1007860087006830A500E430A400A40BC82BA50B95
:10079600C82B00002030831287006830A500E430A3
:1007A600A400A40BD42BA50BD42B0000103083126D
:1007B60087006830A500E430A400A40BE02BA50B4D
:1007C600E02B000001308312AA070318AB0A0030A1
:1007D600AB072B08803ADF0080305F02031DF52B44
:1007E60009302A02031CF82BF92B0B2B4B284B281C
:0807F6004B2800288301432871
:02400E0094FF1D
:00000001FF
